{
  "_format": "hh-sol-artifact-1",
  "contractName": "CalidBurnMarket",
  "sourceName": "contracts/CalidBurnMarket.sol",
  "abi": [
    {
      "inputs": [],
      "stateMutability": "nonpayable",
      "type": "constructor"
    },
    {
      "anonymous": false,
      "inputs": [
        {
          "indexed": true,
          "internalType": "uint256",
          "name": "itemId",
          "type": "uint256"
        },
        {
          "indexed": true,
          "internalType": "address",
          "name": "nftContract",
          "type": "address"
        },
        {
          "indexed": true,
          "internalType": "uint256",
          "name": "tokenId",
          "type": "uint256"
        },
        {
          "indexed": false,
          "internalType": "address",
          "name": "seller",
          "type": "address"
        },
        {
          "indexed": false,
          "internalType": "address",
          "name": "owner",
          "type": "address"
        },
        {
          "indexed": false,
          "internalType": "uint256",
          "name": "price",
          "type": "uint256"
        },
        {
          "indexed": false,
          "internalType": "bool",
          "name": "sold",
          "type": "bool"
        },
        {
          "indexed": false,
          "internalType": "uint256",
          "name": "parts",
          "type": "uint256"
        },
        {
          "indexed": false,
          "internalType": "uint256",
          "name": "balance",
          "type": "uint256"
        }
      ],
      "name": "MarketItemCreated",
      "type": "event"
    },
    {
      "inputs": [
        {
          "internalType": "address",
          "name": "nftContract",
          "type": "address"
        },
        {
          "internalType": "uint256",
          "name": "tokenId",
          "type": "uint256"
        },
        {
          "internalType": "uint256",
          "name": "price",
          "type": "uint256"
        },
        {
          "internalType": "uint256",
          "name": "parts",
          "type": "uint256"
        }
      ],
      "name": "createMarketItem",
      "outputs": [],
      "stateMutability": "nonpayable",
      "type": "function"
    },
    {
      "inputs": [
        {
          "internalType": "address",
          "name": "nftContract",
          "type": "address"
        },
        {
          "internalType": "uint256",
          "name": "itemId",
          "type": "uint256"
        }
      ],
      "name": "createMarketSale",
      "outputs": [],
      "stateMutability": "payable",
      "type": "function"
    },
    {
      "inputs": [],
      "name": "fetchItemsCreated",
      "outputs": [
        {
          "components": [
            {
              "internalType": "uint256",
              "name": "itemId",
              "type": "uint256"
            },
            {
              "internalType": "address",
              "name": "nftContract",
              "type": "address"
            },
            {
              "internalType": "uint256",
              "name": "tokenId",
              "type": "uint256"
            },
            {
              "internalType": "address payable",
              "name": "seller",
              "type": "address"
            },
            {
              "internalType": "address payable",
              "name": "owner",
              "type": "address"
            },
            {
              "internalType": "uint256",
              "name": "price",
              "type": "uint256"
            },
            {
              "internalType": "bool",
              "name": "sold",
              "type": "bool"
            },
            {
              "internalType": "uint256",
              "name": "parts",
              "type": "uint256"
            },
            {
              "internalType": "uint256",
              "name": "balance",
              "type": "uint256"
            }
          ],
          "internalType": "struct CalidBurnMarket.MarketItem[]",
          "name": "",
          "type": "tuple[]"
        }
      ],
      "stateMutability": "view",
      "type": "function"
    },
    {
      "inputs": [],
      "name": "fetchMarketItems",
      "outputs": [
        {
          "components": [
            {
              "internalType": "uint256",
              "name": "itemId",
              "type": "uint256"
            },
            {
              "internalType": "address",
              "name": "nftContract",
              "type": "address"
            },
            {
              "internalType": "uint256",
              "name": "tokenId",
              "type": "uint256"
            },
            {
              "internalType": "address payable",
              "name": "seller",
              "type": "address"
            },
            {
              "internalType": "address payable",
              "name": "owner",
              "type": "address"
            },
            {
              "internalType": "uint256",
              "name": "price",
              "type": "uint256"
            },
            {
              "internalType": "bool",
              "name": "sold",
              "type": "bool"
            },
            {
              "internalType": "uint256",
              "name": "parts",
              "type": "uint256"
            },
            {
              "internalType": "uint256",
              "name": "balance",
              "type": "uint256"
            }
          ],
          "internalType": "struct CalidBurnMarket.MarketItem[]",
          "name": "",
          "type": "tuple[]"
        }
      ],
      "stateMutability": "view",
      "type": "function"
    },
    {
      "inputs": [],
      "name": "fetchMyNFTs",
      "outputs": [
        {
          "components": [
            {
              "internalType": "uint256",
              "name": "itemId",
              "type": "uint256"
            },
            {
              "internalType": "address",
              "name": "nftContract",
              "type": "address"
            },
            {
              "internalType": "uint256",
              "name": "tokenId",
              "type": "uint256"
            },
            {
              "internalType": "address payable",
              "name": "seller",
              "type": "address"
            },
            {
              "internalType": "address payable",
              "name": "owner",
              "type": "address"
            },
            {
              "internalType": "uint256",
              "name": "price",
              "type": "uint256"
            },
            {
              "internalType": "bool",
              "name": "sold",
              "type": "bool"
            },
            {
              "internalType": "uint256",
              "name": "parts",
              "type": "uint256"
            },
            {
              "internalType": "uint256",
              "name": "balance",
              "type": "uint256"
            }
          ],
          "internalType": "struct CalidBurnMarket.MarketItem[]",
          "name": "",
          "type": "tuple[]"
        }
      ],
      "stateMutability": "view",
      "type": "function"
    },
    {
      "inputs": [
        {
          "internalType": "uint256",
          "name": "itemId",
          "type": "uint256"
        }
      ],
      "name": "getPriceOfPart",
      "outputs": [
        {
          "internalType": "uint256",
          "name": "",
          "type": "uint256"
        }
      ],
      "stateMutability": "view",
      "type": "function"
    }
  ],
  "bytecode": "0x608060405234801561001057600080fd5b50600160008190555033600360006101000a81548173ffffffffffffffffffffffffffffffffffffffff021916908373ffffffffffffffffffffffffffffffffffffffff160217905550611aca806100696000396000f3fe6080604052600436106100555760003560e01c80630f08efe01461005a578063202e37401461008557806323ebb0c3146100b0578063599ba234146100ed578063c23b139e14610116578063f064c32e14610132575b600080fd5b34801561006657600080fd5b5061006f61015d565b60405161007c91906116c7565b60405180910390f35b34801561009157600080fd5b5061009a610488565b6040516100a791906116c7565b60405180910390f35b3480156100bc57600080fd5b506100d760048036038101906100d291906113d4565b610837565b6040516100e49190611769565b60405180910390f35b3480156100f957600080fd5b50610114600480360381019061010f9190611371565b610878565b005b610130600480360381019061012b9190611335565b610bbe565b005b34801561013e57600080fd5b50610147610e4e565b60405161015491906116c7565b60405180910390f35b6060600061016b60016111fd565b9050600061017960026111fd565b61018360016111fd565b61018d9190611855565b90506000808267ffffffffffffffff8111156101d2577f4e487b7100000000000000000000000000000000000000000000000000000000600052604160045260246000fd5b60405190808252806020026020018201604052801561020b57816020015b6101f861127b565b8152602001906001900390816101f05790505b50905060005b8481101561047d57600073ffffffffffffffffffffffffffffffffffffffff166004600060018461024291906117ce565b815260200190815260200160002060040160009054906101000a900473ffffffffffffffffffffffffffffffffffffffff1673ffffffffffffffffffffffffffffffffffffffff16141561046a57600060018261029f91906117ce565b905060006004600083815260200190815260200160002090508060405180610120016040529081600082015481526020016001820160009054906101000a900473ffffffffffffffffffffffffffffffffffffffff1673ffffffffffffffffffffffffffffffffffffffff1673ffffffffffffffffffffffffffffffffffffffff168152602001600282015481526020016003820160009054906101000a900473ffffffffffffffffffffffffffffffffffffffff1673ffffffffffffffffffffffffffffffffffffffff1673ffffffffffffffffffffffffffffffffffffffff1681526020016004820160009054906101000a900473ffffffffffffffffffffffffffffffffffffffff1673ffffffffffffffffffffffffffffffffffffffff1673ffffffffffffffffffffffffffffffffffffffff168152602001600582015481526020016006820160009054906101000a900460ff161515151581526020016007820154815260200160088201548152505084868151811061044d577f4e487b7100000000000000000000000000000000000000000000000000000000600052603260045260246000fd5b602002602001018190525060018561046591906117ce565b945050505b8080610475906118f5565b915050610211565b508094505050505090565b6060600061049660016111fd565b905060008060005b8381101561053f573373ffffffffffffffffffffffffffffffffffffffff16600460006001846104ce91906117ce565b815260200190815260200160002060040160009054906101000a900473ffffffffffffffffffffffffffffffffffffffff1673ffffffffffffffffffffffffffffffffffffffff16141561052c5760018361052991906117ce565b92505b8080610537906118f5565b91505061049e565b5060008267ffffffffffffffff811115610582577f4e487b7100000000000000000000000000000000000000000000000000000000600052604160045260246000fd5b6040519080825280602002602001820160405280156105bb57816020015b6105a861127b565b8152602001906001900390816105a05790505b50905060005b8481101561082c573373ffffffffffffffffffffffffffffffffffffffff16600460006001846105f191906117ce565b815260200190815260200160002060040160009054906101000a900473ffffffffffffffffffffffffffffffffffffffff1673ffffffffffffffffffffffffffffffffffffffff16141561081957600060018261064e91906117ce565b905060006004600083815260200190815260200160002090508060405180610120016040529081600082015481526020016001820160009054906101000a900473ffffffffffffffffffffffffffffffffffffffff1673ffffffffffffffffffffffffffffffffffffffff1673ffffffffffffffffffffffffffffffffffffffff168152602001600282015481526020016003820160009054906101000a900473ffffffffffffffffffffffffffffffffffffffff1673ffffffffffffffffffffffffffffffffffffffff1673ffffffffffffffffffffffffffffffffffffffff1681526020016004820160009054906101000a900473ffffffffffffffffffffffffffffffffffffffff1673ffffffffffffffffffffffffffffffffffffffff1673ffffffffffffffffffffffffffffffffffffffff168152602001600582015481526020016006820160009054906101000a900460ff16151515158152602001600782015481526020016008820154815250508486815181106107fc577f4e487b7100000000000000000000000000000000000000000000000000000000600052603260045260246000fd5b602002602001018190525060018561081491906117ce565b945050505b8080610824906118f5565b9150506105c1565b508094505050505090565b6000600460008381526020019081526020016000206007015460046000848152602001908152602001600020600501546108719190611824565b9050919050565b61088061120b565b600082116108c3576040517f08c379a00000000000000000000000000000000000000000000000000000000081526004016108ba90611749565b60405180910390fd5b60008111610906576040517f08c379a00000000000000000000000000000000000000000000000000000000081526004016108fd90611709565b60405180910390fd5b610910600161125b565b600061091c60016111fd565b90506040518061012001604052808281526020018673ffffffffffffffffffffffffffffffffffffffff1681526020018581526020013373ffffffffffffffffffffffffffffffffffffffff168152602001600073ffffffffffffffffffffffffffffffffffffffff1681526020018481526020016000151581526020018381526020016000815250600460008381526020019081526020016000206000820151816000015560208201518160010160006101000a81548173ffffffffffffffffffffffffffffffffffffffff021916908373ffffffffffffffffffffffffffffffffffffffff1602179055506040820151816002015560608201518160030160006101000a81548173ffffffffffffffffffffffffffffffffffffffff021916908373ffffffffffffffffffffffffffffffffffffffff16021790555060808201518160040160006101000a81548173ffffffffffffffffffffffffffffffffffffffff021916908373ffffffffffffffffffffffffffffffffffffffff16021790555060a0820151816005015560c08201518160060160006101000a81548160ff02191690831515021790555060e0820151816007015561010082015181600801559050508473ffffffffffffffffffffffffffffffffffffffff166323b872dd3330876040518463ffffffff1660e01b8152600401610b209392919061162f565b600060405180830381600087803b158015610b3a57600080fd5b505af1158015610b4e573d6000803e3d6000fd5b50505050838573ffffffffffffffffffffffffffffffffffffffff16827fd4e17587c62af0edecf2c59fa4bd20acfdef3bfa744acaa01dbcd61322796394336000886000896000604051610ba796959493929190611666565b60405180910390a450610bb8611271565b50505050565b610bc661120b565b60006004600083815260200190815260200160002060050154905060006004600084815260200190815260200160002060070154905060006004600085815260200190815260200160002060020154905060008284610c259190611824565b9050803414610c69576040517f08c379a0000000000000000000000000000000000000000000000000000000008152600401610c60906116e9565b60405180910390fd5b806004600087815260200190815260200160002060080154610c8b91906117ce565b60046000878152602001908152602001600020600801819055508360046000878152602001908152602001600020600801541415610e3e578573ffffffffffffffffffffffffffffffffffffffff166323b872dd3033856040518463ffffffff1660e01b8152600401610d009392919061162f565b600060405180830381600087803b158015610d1a57600080fd5b505af1158015610d2e573d6000803e3d6000fd5b505050506004600086815260200190815260200160002060030160009054906101000a900473ffffffffffffffffffffffffffffffffffffffff1673ffffffffffffffffffffffffffffffffffffffff166108fc349081150290604051600060405180830381858888f19350505050158015610dae573d6000803e3d6000fd5b50336004600087815260200190815260200160002060040160006101000a81548173ffffffffffffffffffffffffffffffffffffffff021916908373ffffffffffffffffffffffffffffffffffffffff16021790555060016004600087815260200190815260200160002060060160006101000a81548160ff021916908315150217905550610e3d600261125b565b5b50505050610e4a611271565b5050565b60606000610e5c60016111fd565b905060008060005b83811015610f05573373ffffffffffffffffffffffffffffffffffffffff1660046000600184610e9491906117ce565b815260200190815260200160002060030160009054906101000a900473ffffffffffffffffffffffffffffffffffffffff1673ffffffffffffffffffffffffffffffffffffffff161415610ef257600183610eef91906117ce565b92505b8080610efd906118f5565b915050610e64565b5060008267ffffffffffffffff811115610f48577f4e487b7100000000000000000000000000000000000000000000000000000000600052604160045260246000fd5b604051908082528060200260200182016040528015610f8157816020015b610f6e61127b565b815260200190600190039081610f665790505b50905060005b848110156111f2573373ffffffffffffffffffffffffffffffffffffffff1660046000600184610fb791906117ce565b815260200190815260200160002060030160009054906101000a900473ffffffffffffffffffffffffffffffffffffffff1673ffffffffffffffffffffffffffffffffffffffff1614156111df57600060018261101491906117ce565b905060006004600083815260200190815260200160002090508060405180610120016040529081600082015481526020016001820160009054906101000a900473ffffffffffffffffffffffffffffffffffffffff1673ffffffffffffffffffffffffffffffffffffffff1673ffffffffffffffffffffffffffffffffffffffff168152602001600282015481526020016003820160009054906101000a900473ffffffffffffffffffffffffffffffffffffffff1673ffffffffffffffffffffffffffffffffffffffff1673ffffffffffffffffffffffffffffffffffffffff1681526020016004820160009054906101000a900473ffffffffffffffffffffffffffffffffffffffff1673ffffffffffffffffffffffffffffffffffffffff1673ffffffffffffffffffffffffffffffffffffffff168152602001600582015481526020016006820160009054906101000a900460ff16151515158152602001600782015481526020016008820154815250508486815181106111c2577f4e487b7100000000000000000000000000000000000000000000000000000000600052603260045260246000fd5b60200260200101819052506001856111da91906117ce565b945050505b80806111ea906118f5565b915050610f87565b508094505050505090565b600081600001549050919050565b60026000541415611251576040517f08c379a000000000000000000000000000000000000000000000000000000000815260040161124890611729565b60405180910390fd5b6002600081905550565b6001816000016000828254019250508190555050565b6001600081905550565b60405180610120016040528060008152602001600073ffffffffffffffffffffffffffffffffffffffff16815260200160008152602001600073ffffffffffffffffffffffffffffffffffffffff168152602001600073ffffffffffffffffffffffffffffffffffffffff1681526020016000815260200160001515815260200160008152602001600081525090565b60008135905061131a81611a66565b92915050565b60008135905061132f81611a7d565b92915050565b6000806040838503121561134857600080fd5b60006113568582860161130b565b925050602061136785828601611320565b9150509250929050565b6000806000806080858703121561138757600080fd5b60006113958782880161130b565b94505060206113a687828801611320565b93505060406113b787828801611320565b92505060606113c887828801611320565b91505092959194509250565b6000602082840312156113e657600080fd5b60006113f484828501611320565b91505092915050565b6000611409838361155a565b6101208301905092915050565b61141f8161189b565b82525050565b61142e81611889565b82525050565b61143d81611889565b82525050565b600061144e82611794565b61145881856117ac565b935061146383611784565b8060005b8381101561149457815161147b88826113fd565b97506114868361179f565b925050600181019050611467565b5085935050505092915050565b6114aa816118ad565b82525050565b6114b9816118ad565b82525050565b6114c8816118e3565b82525050565b60006114db600d836117bd565b91506114e68261199c565b602082019050919050565b60006114fe6028836117bd565b9150611509826119c5565b604082019050919050565b6000611521601f836117bd565b915061152c82611a14565b602082019050919050565b6000611544601c836117bd565b915061154f82611a3d565b602082019050919050565b610120820160008201516115716000850182611611565b5060208201516115846020850182611425565b5060408201516115976040850182611611565b5060608201516115aa6060850182611416565b5060808201516115bd6080850182611416565b5060a08201516115d060a0850182611611565b5060c08201516115e360c08501826114a1565b5060e08201516115f660e0850182611611565b5061010082015161160b610100850182611611565b50505050565b61161a816118d9565b82525050565b611629816118d9565b82525050565b60006060820190506116446000830186611434565b6116516020830185611434565b61165e6040830184611620565b949350505050565b600060c08201905061167b6000830189611434565b6116886020830188611434565b6116956040830187611620565b6116a260608301866114b0565b6116af6080830185611620565b6116bc60a08301846114bf565b979650505050505050565b600060208201905081810360008301526116e18184611443565b905092915050565b60006020820190508181036000830152611702816114ce565b9050919050565b60006020820190508181036000830152611722816114f1565b9050919050565b6000602082019050818103600083015261174281611514565b9050919050565b6000602082019050818103600083015261176281611537565b9050919050565b600060208201905061177e6000830184611620565b92915050565b6000819050602082019050919050565b600081519050919050565b6000602082019050919050565b600082825260208201905092915050565b600082825260208201905092915050565b60006117d9826118d9565b91506117e4836118d9565b9250827fffffffffffffffffffffffffffffffffffffffffffffffffffffffffffffffff038211156118195761181861193e565b5b828201905092915050565b600061182f826118d9565b915061183a836118d9565b92508261184a5761184961196d565b5b828204905092915050565b6000611860826118d9565b915061186b836118d9565b92508282101561187e5761187d61193e565b5b828203905092915050565b6000611894826118b9565b9050919050565b60006118a6826118b9565b9050919050565b60008115159050919050565b600073ffffffffffffffffffffffffffffffffffffffff82169050919050565b6000819050919050565b60006118ee826118d9565b9050919050565b6000611900826118d9565b91507fffffffffffffffffffffffffffffffffffffffffffffffffffffffffffffffff8214156119335761193261193e565b5b600182019050919050565b7f4e487b7100000000000000000000000000000000000000000000000000000000600052601160045260246000fd5b7f4e487b7100000000000000000000000000000000000000000000000000000000600052601260045260246000fd5b7f496e76616c69642076616c756500000000000000000000000000000000000000600082015250565b7f5061727473206f662074686520636f6e7472616374206d75737420626520617460008201527f206c656173742031000000000000000000000000000000000000000000000000602082015250565b7f5265656e7472616e637947756172643a207265656e7472616e742063616c6c00600082015250565b7f5072696365206d757374206265206174206c6561737420312077656900000000600082015250565b611a6f81611889565b8114611a7a57600080fd5b50565b611a86816118d9565b8114611a9157600080fd5b5056fea2646970667358221220dfafc4810ae234bcfe9ca05edda67af2d7600ba9ac743ab6a979542920f9637564736f6c63430008030033",
  "linkReferences": {},
  "deployedLinkReferences": {}
}